:020000040000FA
:020000000F28C7
:10000800DE00030E8312A1000408A2000A08A30060
:100018005F08A400182810288312AE01A701A801C0
:10002800A901AA0183019B288B1E1B281C287D2857
:100038000B1D1F2820287D283D3081000B112E190B
:1000480026282728352885192A282B2834282908DE
:1000580003192F28302834282E15AE14A801352866
:100068002F14AE1C3828392865280130A000200834
:10007800A8070B302802031C422843285E28AE102C
:10008800A8018519482849285C282908A0002007C4
:10009800013E84003421AB003421AC0085142C08C7
:1000A8008F002B088E0010140C1083160C14652872
:1000B8002E116528851D612862286528AE10A801C3
:1000C8005C2883122E1C69286A287D280130A0002C
:1000D8002008A8070B302802031C732874287D28E1
:1000E8002E10A801851979287A287C28AE147D2835
:1000F8002E1183160C1C812882288F2883120C1C31
:10010800862887288F28851010100C1083160C104D
:1001180083122E14A80183122408DF0023088A0002
:1001280022088400210E8300DE0E5E0E0900FF23E4
:1001380083169000062152210B178B1783122F1C50
:10014800A628A728D0282F101F140330A600A60B16
:10015800AB2883129F149F18B228B328AF28000039
:1001680083121E08A6002608AA001F10F830A60051
:100178002608A705C9302A02031CC328C428C72893
:100188002714A711D02814302A020318CC28CD2808
:10019800CF28A714D02827152E19D328D428A22869
:1001A800271DD728D828E728A719DB28DC28E7281F
:1001B800A715073029020318E228E328E7280130A9
:1001C800A6002608A907A71CEA28EB28F728A719DC
:1001D800EE28EF28F728A71529080319F428F52889
:1001E800F7280130A9020B138B132908113E84004C
:1001F8003421A6002608AD000B178B172D088500A3
:10020800A2280F280B138B1307308312990083162B
:100218009F01FF3083128500FF3083168500960109
:100228009501C9308500C93083128500C030831616
:100238008100C0308312A500250883168105073088
:100248008312A5002508831681043D30831281009E
:1002580090018E018F019F01513083169F00080085
:1002680001308A000408840A82070034FF34FF340E
:10027800BE34E4340634D9344E34CD349634C134E3
:10028800DE34B5340E34AE345634A234003404347B
:1002980010341434203424343034343483122F147A
:1002A8002E11AE102E10A701A9012908A5002507B7
:1002B800013E84003421AB003421AC002908113EF2
:1002C80084003421A5002508AD002D0885000B11F8
:0402D8008B16080079
:02400E00C431BB
:00000001FF
